:100000000C9465000C948D000C948D000C948D0064
:100010000C948D000C948D000C948D000C948D002C
:100020000C948D000C948D000C948D000C948D001C
:100030000C948D000C948D000C948D000C948D000C
:100040000C943B0C0C948D000C947C0F0C94AE0F14
:100050000C948D000C948D000C948D000C948D00EC
:100060000C947B050C948D00000000080002010038
:100070000003040700000000000000000102040863
:100080001020408001020408102001020408102002
:10009000040404040404040402020202020203032E
:1000A00003030303000000002300260029000000D2
:1000B0000000250028002B0000000000240027007D
:1000C0002A00DF03370CDE0FF50311241FBECFEF2C
:1000D000D8E0DEBFCDBF11E0A0E0B1E0ECEFFEE282
:1000E00002C005900D92A436B107D9F723E0A4E62B
:1000F000B1E001C01D92AC31B207E1F710E0C8ECED
:10010000D0E004C02297FE010E94E514C23CD10752
:10011000C9F70E9422100C9471170C94000080E221
:1001200092E00E94AC0B26E040E855E260E070E00F
:100130008BE792E00E941A0F66E271E08BE792E093
:100140000C947D10CF93DF9300D000D000D0CDB7BA
:10015000DEB769E170E080E090E00E94B40C47E017
:1001600050E061E070E0CE0101960E94E40ABE0119
:100170006F5F7F4F84E691E00E94B711CE01019638
:100180000E94DD1027E030E040E050E064E671E0DE
:10019000CE0101960E945912CE0101960E94DD10F7
:1001A00064E671E0CE0101960E94AE1124E030E0D9
:1001B0004BE3BE016F5F7F4F8AE691E00E944C0ADD
:1001C000CE0101960E94DD1026960FB6F894DEBF90
:1001D0000FBECDBFDF91CF910895CF93DF93D82F7E
:1001E000C0E00E94A20060917401709175016430BA
:1001F000710531F48091760190917701049771F047
:100200008091780190917901049709F04DC0809117
:100210007A0190917B01049709F046C0C0E02091DB
:100220006A0130916B012150310922303105A0F46F
:10023000CB010197029720F48EE791E00E94A4077A
:100240006091760170917701CB010197029720F4BC
:100250008BE891E00E94A40720916A0130916B0124
:10026000235031092230310508F0BBCF609178016D
:10027000709179019B01215031092230310520F420
:1002800088E991E00E94A40760917A0170917B0156
:100290009B01215031092230310508F0A2CF85EAB7
:1002A00091E00E94A4079DCFCC2351F0DD2351F0B3
:1002B00068E270E08AE691E0DF91CF910C94FE094C
:1002C000C1E0ADCFDF91CF910895CF92DF92EF9251
:1002D000FF928AE691E00E94E0090E94850C0E944C
:1002E000A8136B017C010E94850C0E94A813A70132
:1002F00096010E94AA1220E030E44CE156E40E94EC
:100300005A1418160CF10E94A20080917401909169
:100310007501049731F480917601909177010497EB
:1003200061F08091780190917901049769F480914E
:100330007A0190917B01049739F460916A018AE611
:1003400091E00E94350ACFCFFF90EF90DF90CF90E1
:1003500008957F928F929F92AF92BF92CF92DF9239
:10036000EF92FF920F931F93CF93DF93782E0E940B
:10037000850C6B017C018FEF870D823008F066C021
:100380000E94850C0E94A8134B015C01C701B601B5
:100390000E94A8139B01AC01C501B4010E94AA12DE
:1003A00020E030E04AE755E40E945A1418160CF495
:1003B000ABC00E94A20080917601909177010397D3
:1003C00049F0C6E7D1E09EE7A92E91E0B92E04E7F7
:1003D00011E02BC08091740190917501039789F70A
:1003E0006FE070E08EE791E00E9464076FE070E0DC
:1003F0008BE891E00E94640729C00E5F1F4FF40153
:10040000808191810497E9F4888199810197C9F4E9
:100410006881C5010E94A4072297FDE0AF0EB11CC0
:1004200081E0C237D80709F4ABCF4801F8016081F9
:100430007181CB010197029700F7C5010E94A407C3
:10044000DCCF88819981029719F39ACFCDEFC70D40
:10045000C23008F059C00E94A200809178019091AA
:100460007901039749F0CAE7D1E088E9E82E81E0F5
:10047000F82E08E711E037C080917A0190917B0156
:10048000039789F76FE070E088E991E00E946407C4
:100490006FE070E085EA91E0DF91CF911F910F91BD
:1004A000FF90EF90DF90CF90BF90AF909F908F9094
:1004B0007F900C9464070E5F1F4FF601808191813D
:1004C0000497E9F4888199810197C9F46881C7018B
:1004D0000E94A4072297FDE0EF0EF11C81E0C637D1
:1004E000D80709F4B8CF6801F80160817181CB01A8
:1004F0000197029700F7C7010E94A407DCCF88810B
:100500009981029719F3A7CFDF91CF911F910F9196
:10051000FF90EF90DF90CF90BF90AF909F908F9023
:100520007F9008954F925F926F927F928F929F92E9
:10053000AF92BF92CF92DF92EF92FF920F931F93F1
:10054000CF93DF93CDB7DEB728970FB6F894DEBF11
:100550000FBECDBF80916A010E94A9010E94850C47
:100560000E94A8132B013C015E0189E0A80EB11C7A
:100570000E94850C0E94A813A30192010E94AA1256
:1005800020E030E64AE656E40E945A1418160CF4AD
:1005900064C00E94A200809174019091750103973C
:1005A00061F48091760190917701039731F4809105
:1005B000780190917901039761F02EE7E22E21E016
:1005C000F22E34E7C32E31E0D32E8E010F5F1F4F82
:1005D00007C080917A0190917B01039771F73DC02C
:1005E0004601F60160817181CB010197029718F4F1
:1005F000C7010E94A407F2E0CF0ED11CF401808154
:100600009181049759F4F80160817181CB010197C0
:10061000029720F4C7010E94A40702C00E9465014E
:10062000FDE0EF0EF11C0E5F1F4F0A151B05C1F612
:10063000DE011196E4E7F1E0819191919C01215056
:1006400031092230310518F411969C938E9312963D
:1006500081E0EC37F80781F78BCF28960FB6F89436
:10066000DEBF0FBECDBFDF91CF911F910F91FF90E5
:10067000EF90DF90CF90BF90AF909F908F907F9042
:100680006F905F904F900895CF92DF92EF92FF921C
:100690000F931F93CF93DF93D82F0E94850C0E9456
:1006A000A8136B017C01C0E00E94850C0E94A81376
:1006B000A70196010E94AA1220E030E84BE355E41E
:1006C0000E945A141816E4F10E94A200809174014D
:1006D00090917501049731F48091760190917701A2
:1006E0000497C9F08091780190917901049731F4D1
:1006F00080917A0190917B01049769F0C0E006E453
:1007000010E020E030E046E953E46D2F8AE691E006
:100710000E942208C9CFCC2389F020E030E046E9CE
:1007200053E46D2F8AE691E0DF91CF911F910F91F5
:10073000FF90EF90DF90CF900C94FC08C1E0DFCFEA
:10074000DF91CF911F910F91FF90EF90DF90CF90AD
:10075000089581E090E090936B0180936A019093FB
:100760006D0180936C0182E090E090936F01809323
:100770006E0120E030E046E953E461E08AE691E072
:100780000E94FC080E94A20080917801909179015A
:100790000497C1F380917A0190917B01049791F3C2
:1007A00068E270E08AE691E00E94FE0980916A01A9
:1007B0000E94440381E00E94ED000C9492020F938A
:1007C0001F9306E011E02EE031E04EE151E066E1DA
:1007D00071E08AE691E00E94BA0765E571E084E67F
:1007E00091E01F910F910C944B1184E691E00C94D1
:1007F000DD10CF93DF9300D000D000D0CDB7DEB7AF
:100800008BE792E00E94370E181619060CF084C090
:100810006BE772E0CE0101960E94C310BE016F5FCC
:100820007F4F84E691E00E94B711CE0101960E94AD
:10083000DD1064E671E08BE792E00E946F106CE2DD
:1008400071E084E691E00E941A12882319F00E9458
:10085000A90356C064E671E0CE0101960E94AE1174
:1008600023E030E04BE3BE016F5F7F4F8AE691E00B
:100870000E944C0ACE0101960E94DD108091740105
:100880009091750190937101809370018091760130
:100890009091770190937301809372010E9492026C
:1008A00020916C0130916D018091700190917101E6
:1008B0002817390791F08AE691E00E948E0980930B
:1008C0006A0190936B010E94440381E00E94ED0055
:1008D0008AE691E00E94DA09E3CF20916E0130911F
:1008E0006F0180917201909173012817390719F7F0
:1008F00062E370E080E090E00E94B40C0E949202FB
:1009000064E670E080E090E00E94B40C61E371E086
:100910008BE792E00E94831026960FB6F894DEBF14
:100920000FBECDBFDF91CF91089510921F0281E0DD
:1009300080931D0210921C0261E082E10E94D80D9A
:1009400061E083E10E94D80DE9EBF0E080818E7FC9
:10095000808380818D7F808388E48093B80085E4E4
:100960008093BC000895413208F043C090911F026B
:100970009111FCCF91E090931F0220931D022FEF65
:100980002093B2011092F701240F2093F601909367
:100990001E0290911E02880F892B80931E02809167
:1009A0001C02813061F410921C0280911E0280931F
:1009B000BB008091BC0083FDF8CF85EC01C085EEC3
:1009C0008093BC0080911F028130E1F38091F70198
:1009D000841710F44091F70128EF31E0FB01D901B1
:1009E0008A2F821B841718F48D918193F9CF842F5D
:1009F000089580E008950F93413208F04AC0909125
:100A00001F029111FCCF92E090931F0200931D02F0
:100A10009FEF9093B2011092F7014093F601FB0112
:100A200068EF71E0DB019A2F961B941718F49191EF
:100A30009D93F9CF10921E0290911E02880F892B70
:100A400080931E0280911C02813061F410921C027E
:100A500080911E028093BB008091BC0083FDF8CF83
:100A600085EC01C085EE8093BC00222321F08091AB
:100A70001F028230E1F38091B2018F3F61F08091DB
:100A8000B201803251F08091B201803341F483E0B1
:100A900007C081E005C080E003C082E001C084E0BF
:100AA0000F910895613298F420911F02243089F447
:100AB0006093D401FC0186ED91E0DC012A2F281B14
:100AC000261718F421912D93F9CF80E0089581E045
:100AD000089582E0089585ED8093BC008091BC006C
:100AE00084FDFCCF10921F02089585EC8093BC001A
:100AF00010921F0208951F920F920FB60F921124A9
:100B00002F933F934F935F936F937F938F939F9315
:100B1000AF93BF93EF93FF938091B900887F8036A6
:100B200009F49EC078F5883209F45DC090F48031F4
:100B300009F456C038F4882309F4F5C0883009F464
:100B40004FC0F5C0883109F44EC0803209F45FC04F
:100B5000EEC0803409F46AC058F4803309F457C0F9
:100B6000883309F0E4C08093B2010E947505DFC0AC
:100B7000803509F44FC0883509F45DC0883409F028
:100B8000D6C0D3C0883909F4C4C0A8F4883709F4A2
:100B900067C038F4883609F463C0803709F460C050
:100BA000C6C0883809F4B5C0803909F45FC0803800
:100BB00009F0BDC05BC0803B09F483C038F4803AC3
:100BC00009F466C0883A09F47CC0B1C0803C09F4DD
:100BD000A4C0883C09F4A1C0883B09F487C0A7C021
:100BE00080911E0210C09091F7018091F601981734
:100BF00070F5E091F70181E08E0F8093F701F0E04E
:100C0000E850FE4F80818093BB0085EC83C08093C9
:100C1000B2018BC0E091F70181E08E0F8093F70164
:100C20008091BB00F0E0E850FE4F80839091F70187
:100C30008091F6016BC0E091F70181E08E0F809307
:100C4000F7018091BB00F0E0E850FE4F8083809177
:100C50001D0281116AC081E080931C0284EA5EC09B
:100C600083E080931F021092B301CFCF8091B30134
:100C7000803208F04EC0E091B30181E08E0F809386
:100C8000B3018091BB00F0E0EC54FE4F8083BDCFF8
:100C90000E9475058091B301803230F4E091B30178
:100CA000F0E0EC54FE4F10826091B30170E0E091EF
:100CB0001802F091190284EB91E009951092B301AA
:100CC00036C084E080931F021092D5011092D401A7
:100CD000E0911A02F0911B0209958091D4018111D3
:100CE00005C081E08093D4011092D601E091D50136
:100CF00081E08E0F8093D501F0E0EA52FE4F8081B3
:100D00008093BB009091D5018091D401981708F48D
:100D10007CCF85E88093BC000AC085EC8093BC0042
:100D200010921F0204C01092B2010E946B05FF9145
:100D3000EF91BF91AF919F918F917F916F915F9153
:100D40004F913F912F910F900FBE0F901F901895CC
:100D5000CF92DF92EF92FF92CF93DF93EC01690184
:100D60007A01613031F460E088810E94D80D61E041
:100D700007C0623041F461E088810E94D80D60E0D4
:100D80008A810E94D80D20E030E04FE753E4C7018C
:100D9000B6010E945E142AE939ED44E254E40E944F
:100DA0000F130E9477136B017C018C810E94170D39
:100DB000C601DF91CF91FF90EF90DF90CF90089523
:100DC0004F925F926F927F928F929F92AF92BF925B
:100DD000CF92DF92EF92FF920F931F93CF93DF9307
:100DE000EC0169017A01613031F460E088810E9490
:100DF000D80D61E007C0623041F461E088810E9453
:100E0000D80D60E08A810E94D80D20E030E04FE7E5
:100E100053E4C701B6010E945E142AE939ED44E2A9
:100E200054E40E940F130E9477136B017C018C81A4
:100E30000E94170D0E94850C4B015C01280166245D
:100E400057FC6094762C0E94850C681979098A09F0
:100E50009B096415750586059705A8F3C601DF9102
:100E6000CF911F910F91FF90EF90DF90CF90BF90A7
:100E7000AF909F908F907F906F905F904F9008956C
:100E8000CF92DF92EF92FF92CF93DF93EC01CB01F1
:100E9000BA0120E030E04FE753E40E945E142AE9F3
:100EA00039ED44E254E40E940F130E9477136B0162
:100EB0007C018C810E94170DC601DF91CF91FF90BC
:100EC000EF90DF90CF900895CF92DF92EF92FF9254
:100ED0000F931F93CF93DF93EC018B0188810E94C6
:100EE0000E0E6C018A810E940E0E7C0161E0CD2005
:100EF000C09409F460E088810E94D80D61E0EF2081
:100F0000E09409F460E08A810E94D80DB801882736
:100F100077FD8095982F0E94B40C40E050E0BA0114
:100F2000CE010E944007B801660F771F882777FD22
:100F30008095982FDF91CF911F910F91FF90EF90A7
:100F4000DF90CF900C94B40C0F931F93CF93DF934B
:100F5000EC0106E410E020E030E046E953E40E94B2
:100F6000E0066AE070E0CE01DF91CF911F910F9112
:100F70000C9464078F929F92AF92BF92CF92DF92B0
:100F8000EF92FF920F931F93CF93DF93FC0181E0C9
:100F900090E0918380839383828382E090E09583C5
:100FA00084831782168211861086DF011A968AE0E2
:100FB000ED0119928A95E9F74B017A01690158010F
:100FC000EF0100E010E061E0F40180810E949F0DDC
:100FD00061E0F70180810E949F0D61E0F601808150
:100FE0000E949F0D60E0F50180810E949F0DF50138
:100FF000819191915F01F601219131916F01F7018A
:10100000419151917F01F401619171914F017D8B6B
:101010006C8B5F8B4E8B398F288F9B8F8A8F0F5FE6
:101020001F4F2D960430110571F6DF91CF911F915E
:101030000F91FF90EF90DF90CF90BF90AF909F9077
:101040008F9008954F925F926F927F92AF92BF926E
:10105000CF92DF92EF92FF920F931F93CF93DF9384
:10106000EC0169017A01623009F448C0E0F46130B2
:1010700009F0B2C05C018EE2A80EB11C61E0C501AE
:101080000E94A806EB96A701960161E0CE010E949E
:10109000A8060E94850C6B017C012801662457FC80
:1010A0006094762C1FC0633009F44CC0643009F0A2
:1010B00093C05C0184E1A80EB11C62E0C5010E94EE
:1010C000A806A196A701960162E0CE010E94A8069B
:1010D0000E94850C6B017C012801662457FC6094FA
:1010E000762C5FC00E94850C6C197D098E099F09C2
:1010F0006415750586059705A8F347C05C018EE267
:10110000A80EB11C62E0C5010E94A806EB96A701DB
:10111000960162E0CE010E94A8060E94850C6B0138
:101120007C012801662457FC6094762C0E94850C73
:101130006C197D098E099F0964157505860597054B
:10114000A8F33AC05C0184E1A80EB11C61E0C501BE
:101150000E94A806A196A701960161E0CE010E9417
:10116000A8060E94850C6B017C012801662457FCAF
:101170006094762C0E94850C6C197D098E099F095C
:101180006415750586059705A8F320E030E0A901F0
:1011900061E0C5010E94A80620E030E0A90161E0FD
:1011A00016C00E94850C6C197D098E099F09641573
:1011B000750586059705A8F320E030E0A90162E0F7
:1011C000C5010E94A80620E030E0A90162E0CE013E
:1011D0000E94A80681E001C080E0DF91CF911F91BD
:1011E0000F91FF90EF90DF90CF90BF90AF907F90E6
:1011F0006F905F904F900895CF92DF92EF92FF92A1
:10120000CF93DF93EC0169017A016230B9F050F4B9
:10121000613059F561E08E960E94A806A7019601FB
:1012200061E013C06330A1F06430F9F462E04496E9
:101230000E94A806A701960162E011C062E08E96A6
:101240000E94A806A701960162E0CE01CB9609C0D4
:1012500061E044960E94A806A701960161E0CE01D4
:1012600081960E94A80681E001C080E0DF91CF91C5
:10127000FF90EF90DF90CF900895CF92DF92EF92A2
:10128000FF92CF93DF93EC016A017B018881998102
:1012900082309105F1F06CF40197C1F59A01AB0130
:1012A00061E0CE018E960E94A806A701960161E03A
:1012B0001AC083309105D1F0049741F59A01AB0132
:1012C00062E0CE0144960E94A806A701960162E062
:1012D00017C09A01AB0162E0CE018E960E94A8066B
:1012E000A701960162E0CE01CB960CC09A01AB013A
:1012F00061E0CE0144960E94A806A701960161E034
:10130000CE0181960E94A80681E001C080E0DF91B5
:10131000CF91FF90EF90DF90CF900895FC01228154
:101320003381868197816481758140855185281735
:10133000390741F46417750794F0461757079CF472
:1013400084E00AC06417750749F4281739074CF080
:101350008217930744F482E090E00895089583E0B3
:10136000FBCF81E0F9CF8FEF9FEF0895FC01623052
:1013700071F018F4613031F00895633079F0643021
:1013800091F0089582819381840F951F04C082811A
:101390009381841B950B9383828308958481958127
:1013A000840F951F04C084819581841B950B9583C0
:1013B0008483089541E050E0FC0160810C94B609FB
:1013C000FC01808191818230910569F01CF40197C4
:1013D00039F008958330910549F0049751F008954C
:1013E00082E090E008C081E090E005C084E090E0F9
:1013F00002C083E090E0918380830895CF92DF92D2
:10140000EF92FF92CF93DF93EC016B010E94E00912
:101410002AE939ED44E254E46881CE010E94FC08D7
:10142000CE010E94E009EE24D7FCE094FE2CC70117
:10143000B6010E94B40C40E050E0BA01CE010E9417
:101440003D09C701B6010E94AA132AE939E949E911
:101450005EE30E945E140E947C13DF91CF91FF90A7
:10146000EF90DF90CF900C94B40C0F931F93CF9319
:10147000DF93EC0106E410E020E030E046E953E4BD
:101480000E9422086AE070E0CE010E94FE09DF910E
:10149000CF911F910F9108955F926F927F928F92DB
:1014A0009F92AF92BF92CF92DF92EF92FF920F93F3
:1014B0001F93CF93DF93CDB7DEB72C970FB6F89479
:1014C000DEBF0FBECDBF4C018B01542E790165E507
:1014D00071E0CE0107960E944B113401C12CD12C32
:1014E00081E0E81AF108CE14DF040CF048C0652D45
:1014F000C8010E9455125C01E2E06E0E711C8F3F24
:10150000FFEF9F0749F4F6013596EE0FFF1FE80D38
:10151000F91D9183808333C09C0140E050E0B80105
:10152000CE0101960E945912BE016F5F7F4FCE011E
:1015300007960E94B711CE0101960E94DD10F801B6
:1015400024813581A5014F5F5F4FB801CE0101961F
:101550000E945912BE016F5F7F4FC8010E94B711F0
:10156000CE0101960E94DD10CE0107960E949E12C8
:10157000F30171876087FFEFCF1ADF0AB4CFC8018C
:101580000E949E12F7013596EE0FFF1FE80DF91D20
:1015900071836083CE0107960E94DD102C960FB6F2
:1015A000F894DEBF0FBECDBFDF91CF911F910F9199
:1015B000FF90EF90DF90CF90BF90AF909F908F9073
:1015C0007F906F905F900895EF92FF920F931F931B
:1015D000CF93DF9300D0CDB7DEB77C018B0165E5FB
:1015E00071E049835A830E944B1149815A81B801A5
:1015F00080E292E00E94340C80E292E00E94150B9F
:10160000892B49F080E292E00E941D0B682FC701F0
:101610000E940712F1CFC7010F900F90DF91CF9179
:101620001F910F91FF90EF9008958091500290E0EC
:1016300020915102821B91090895209151028091BD
:101640005002281750F4E22FF0E0EE5AFD4F80814F
:1016500090E02F5F2093510208958FEF9FEF089540
:10166000E091510280915002E81730F4F0E0EE5A18
:10167000FD4F808190E008958FEF9FEF08950895CA
:10168000CF92DF92EF92FF920F931F93CF93DF934E
:101690007C01CB018A0120912C02222389F0EB01ED
:1016A0006B01C40ED51ECC15DD0569F06991D7011B
:1016B000ED91FC910190F081E02DC7010995F3CFE8
:1016C000642F0E945205C801DF91CF911F910F91A5
:1016D000FF90EF90DF90CF900895CF93DF931F920C
:1016E000CDB7DEB7698320912C022223D1F020915F
:1016F0002D02203240F021E030E0FC0133832283D0
:1017000080E090E015C080912E02E82FF0E0E15DCE
:10171000FD4F998190838F5F80932E0280932D02DD
:1017200005C061E0CE0101960E94520581E090E083
:101730000F90DF91CF910895FC011382128248EE41
:1017400053E060E070E0448355836683778387E3EA
:1017500091E091838083089510925102109250027B
:1017600010922E0210922D020C94950481E0809329
:101770002C0260934F0210922E0210922D020895B7
:101780000F93062F21E040912D026FE272E08091CD
:101790004F020E94FB0410922E0210922D02109212
:1017A0002C020F9108958F929F92AF92BF92CF9289
:1017B000DF92EF92FF920F931F93CF93DF93EC0191
:1017C000F62ED42E48015901EE2019F10E94B60BD5
:1017D0001E2D143008F013E01150B8F0E881F981A3
:1017E00028E0129FB0011124A501940104C0569570
:1017F0004795379527956A95D2F7CA01B9010190A7
:10180000F081E02DCE010995E7CF60E0CE010E9486
:10181000C00B4D2D413208F040E22C2D62E572E004
:101820008F2D0E94B3041092510280935002DF91D9
:10183000CF911F910F91FF90EF90DF90CF90BF90CD
:10184000AF909F908F900895CF92EF920F931F9338
:10185000C22EE12C00E010E098010E94D30B1F91F2
:101860000F91EF90CF90089521E00C94240C80E22A
:1018700092E00C949C0B1F920F920FB60F921124C2
:101880002F933F938F939F93AF93BF938091730256
:1018900090917402A0917502B0917602309172021B
:1018A00023E0230F2D3720F40196A11DB11D05C0A3
:1018B00026E8230F0296A11DB11D2093720280938A
:1018C000730290937402A0937502B0937602809194
:1018D000770290917802A0917902B0917A020196F4
:1018E000A11DB11D8093770290937802A093790295
:1018F000B0937A02BF91AF919F918F913F912F91B9
:101900000F900FBE0F901F9018952FB7F89460910D
:1019100073027091740280917502909176022FBFCC
:1019200008953FB7F8948091770290917802A09142
:101930007902B0917A0226B5A89B05C02F3F19F015
:101940000196A11DB11D3FBF6627782F892F9A2FC1
:10195000620F711D811D911D42E0660F771F881F68
:10196000991F4A95D1F70895CF92DF92EF92FF9297
:10197000CF93DF936B017C010E94910CEB01C114AA
:10198000D104E104F10489F00E94A9120E94910C93
:101990006C1B7D0B683E734090F381E0C81AD10840
:1019A000E108F108C851DC4FEACFDF91CF91FF90F9
:1019B000EF90DF90CF900895789484B5826084BDD5
:1019C00084B5816084BD85B5826085BD85B5816043
:1019D00085BDEEE6F0E0808181608083E1E8F0E0A3
:1019E0001082808182608083808181608083E0E8D2
:1019F000F0E0808181608083E1EBF0E080818460B1
:101A00008083E0EBF0E0808181608083EAE7F0E0B2
:101A10008081846080838081826080838081816016
:101A200080838081806880831092C10008951F9315
:101A3000CF93DF93182FEB0161E00E949F0D209759
:101A400011F460E004C0CF3FD10539F461E0812F8B
:101A5000DF91CF911F910C94D80DE12FF0E0E85960
:101A6000FF4FE491E330F9F048F4E130B9F0E230AF
:101A7000A1F584B5806284BDC8BD34C0E730E9F00B
:101A8000E83019F1E43049F580918000806280935C
:101A90008000D0938B00C0938A0024C084B58068F6
:101AA00084BDC7BD1FC08091800080688093800086
:101AB000D0938900C093880015C08091B0008068E1
:101AC0008093B000C093B3000DC08091B0008062DD
:101AD0008093B000C093B40005C0C038D1050CF0AD
:101AE000B5CFAFCFDF91CF911F910895833081F0B3
:101AF00028F4813099F08230A1F008958730A9F060
:101B00008830B9F08430D1F4809180008F7D03C09B
:101B1000809180008F7780938000089584B58F77BF
:101B200002C084B58F7D84BD08958091B0008F7709
:101B300003C08091B0008F7D8093B0000895CF9353
:101B4000DF9390E0FC01E458FF4F2491FC01E05743
:101B5000FF4F8491882349F190E0880F991FFC0181
:101B6000E854FF4FA591B49182559F4FFC01C59158
:101B7000D4919FB7611108C0F8948C91209582236D
:101B80008C93888182230AC0623051F4F8948C913E
:101B9000322F309583238C938881822B888304C0D5
:101BA000F8948C91822B8C939FBFDF91CF910895F5
:101BB0000F931F93CF93DF931F92CDB7DEB7282FDC
:101BC00030E0F901E859FF4F8491F901E458FF4FE3
:101BD0001491F901E057FF4F04910023C9F08823C5
:101BE00021F069830E94760D6981E02FF0E0EE0F0D
:101BF000FF1FE255FF4FA591B4919FB7F8948C91C8
:101C0000611103C01095812301C0812B8C939FBF6C
:101C10000F90DF91CF911F910F910895CF93DF9394
:101C2000282F30E0F901E859FF4F8491F901E45879
:101C3000FF4FD491F901E057FF4FC491CC2391F0AD
:101C400081110E94760DEC2FF0E0EE0FFF1FEC5596
:101C5000FF4FA591B4912C912D2381E090E021F4C8
:101C600080E002C080E090E0DF91CF910895FC0118
:101C7000818D228D90E0805C9F4F821B91098F7334
:101C800099270895FC01918D828D981731F0828DEE
:101C9000E80FF11D858D90E008958FEF9FEF089577
:101CA000FC01918D828D981761F0828DDF01A80F64
:101CB000B11D5D968C91928D9F5F9F73928F90E086
:101CC00008958FEF9FEF089584ED9FE0892B49F0F1
:101CD00080E090E0892B29F00E94D40F81110C94B0
:101CE00000000895FC01848DDF01A80FB11DA35AE7
:101CF000BF4F2C91848D90E001968F739927848F2C
:101D0000A689B7892C93A089B1898C9180648C9322
:101D1000938D848D981306C00288F389E02D80810D
:101D20008F7D80830895CF93DF93EC01888D882386
:101D3000C9F0EA89FB89808185FD05C0A889B98938
:101D40008C9186FD0FC00FB607FCF5CF808185FF13
:101D5000F2CFA889B9898C9185FFEDCFCE010E9481
:101D6000720EE7CFDF91CF910895CF92DF92FF926D
:101D70000F931F93CF93DF931F92CDB7DEB76C0104
:101D800081E0D60158968C9358975B969C915B970F
:101D90005C968C915C97981307C05096ED91FC91DE
:101DA0005197808185FD2EC0F601038D10E00F5FF5
:101DB0001F4F0F731127F02EF601848DF81211C0FA
:101DC0000FB607FCF9CFD6015096ED91FC915197D3
:101DD000808185FFF1CFC60169830E94720E6981FF
:101DE000EBCF838DE80FF11DE35AFF4F6083D601DF
:101DF0005B960C935B975296ED91FC915397808183
:101E000080620CC0D6015696ED91FC915797608385
:101E10005096ED91FC91519780818064808381E0A0
:101E200090E00F90DF91CF911F910F91FF90DF9085
:101E3000CF900895BF92CF92DF92EF92FF92CF930F
:101E4000DF93EC016A017B01B22EE889F98982E017
:101E50008083411581EE580761057105A1F060E0AE
:101E600079E08DE390E0A70196010E94C114215012
:101E700031094109510956954795379527952115FF
:101E800080E1380798F0E889F989108260E874E801
:101E90008EE190E0A70196010E94C1142150310902
:101EA000410951095695479537952795EC85FD854C
:101EB0003083EE85FF852083188EEC89FD89B08202
:101EC000EA89FB89808180618083EA89FB8980813E
:101ED00088608083EA89FB89808180688083EA89C1
:101EE000FB8980818F7D8083DF91CF91FF90EF9080
:101EF000DF90CF90BF9008951F920F920FB60F9270
:101F000011242F938F939F93EF93FF93E0918B0274
:101F1000F0918C028081E0919102F091920282FD19
:101F200012C09081809194028F5F8F7320919502EF
:101F3000821751F0E0919402F0E0E558FD4F958F43
:101F40008093940201C08081FF91EF919F918F91C6
:101F50002F910F900FBE0F901F9018951F920F9208
:101F60000FB60F9211242F933F934F935F936F936C
:101F70007F938F939F93AF93BF93EF93FF938BE7E1
:101F800092E00E94720EFF91EF91BF91AF919F91ED
:101F90008F917F916F915F914F913F912F910F9012
:101FA0000FBE0F901F9018958BE792E00E94370E9E
:101FB00021E0892B09F420E0822F089510927E02FF
:101FC00010927D0288EE93E0A0E0B0E080937F0263
:101FD00090938002A0938102B093820287E491E003
:101FE00090937C0280937B0285EC90E09093880232
:101FF0008093870284EC90E090938A028093890218
:1020000080EC90E090938C0280938B0281EC90E0C6
:1020100090938E0280938D0282EC90E090939002D8
:1020200080938F0286EC90E09093920280939102CD
:1020300010929402109295021092960210929702BA
:10204000089508950E94DC0C0E9421100E948F00C8
:10205000C4E6DEE00E94F9032097E1F30E94640EDB
:10206000F9CFCF92DF92EF92FF920F931F93CF930E
:10207000DF937C016A01EB0100E010E00C151D0507
:1020800071F06991D701ED91FC910190F081E02D03
:10209000C7010995892B19F00F5F1F4FEFCFC801BA
:1020A000DF91CF911F910F91FF90EF90DF90CF9034
:1020B00008956115710581F0DB010D900020E9F7AD
:1020C000AD0141505109461B570BDC01ED91FC91CC
:1020D0000280F381E02D099480E090E00895DC0116
:1020E000ED91FC91DB0114964D915C9115976D91EA
:1020F0007C910280F381E02D09940C94591063E5E2
:1021000071E00C9459100F931F93CF93DF93EC0160
:102110000E9459108C01CE010E947F10800F911FE8
:10212000DF91CF911F910F9108950F931F93CF933C
:10213000DF93EC010E94850C688779878A879B87EB
:10214000E881F9810680F781E02DCE01099597FF9E
:1021500015C00E94850C088519852A853B85601B62
:10216000710B820B930B0C811D812E813F816017B7
:1021700071078207930720F38FEF9FEFDF91CF91D5
:102180001F910F9108950F931F93CF93DF93EC014D
:102190008B0165E571E00E944B11C8010E9495100A
:1021A00097FD05C0682FCE010E940712F6CFCE0121
:1021B000DF91CF911F910F910895FC018081918152
:1021C0000C948115CF93DF93EC018881998100975E
:1021D00011F00E948115198218821D821C821B82B7
:1021E0001A82DF91CF9108950F931F93CF93DF93BE
:1021F000EC018B016F5F7F4F888199810E941016DF
:10220000009731F0998388831B830A8381E001C0A2
:1022100080E0DF91CF911F910F910895CF93DF93CD
:10222000EC0188819981892B29F08A819B8186170D
:10223000970760F4CE010E94F410882341F08C814E
:102240009D81892B19F4E881F981108281E0DF9169
:10225000CF910895EF92FF920F931F93CF93DF9347
:10226000EC017B018A01BA010E940E11811104C0A8
:10227000CE010E94E21007C01D830C83B701888144
:1022800099810E941E17CE01DF91CF911F910F916E
:10229000FF90EF900895FC01118210821382128248
:1022A000158214826115710559F0FB01019000201F
:1022B000E9F7AF0141505109461B570B0C942A1105
:1022C00008950F931F93CF93DF938C01EB01FC01D3
:1022D00080819181009799F0428153812C813D81C9
:1022E0004217530750F0688179810E941E178C8134
:1022F0009D81F8019583848313C00E948115888194
:102300009981F801918380838A819B819383828361
:102310008C819D8195838483198218821B821A8205
:102320001D821C82DF91CF911F910F910895CF9351
:10233000DF93EC01FB018617970761F060817181E3
:102340006115710529F0448155810E942A1102C04E
:102350000E94E210CE01DF91CF910895FC0111821D
:10236000108213821282158214820C949711CF93DB
:10237000DF93EC018617970711F00E946111CE01DF
:10238000DF91CF910895CF93DF93EC016115710533
:1023900061F0FB0101900020E9F7AF0141505109C4
:1023A000461B570B0E942A1102C00E94E210CE0168
:1023B000DF91CF910895EF92FF920F931F93CF93E8
:1023C000DF93EC017B010C811D816115710511F416
:1023D00080E016C04115510591F0040F151FB8019A
:1023E0000E940E118823A1F3288139818C819D815F
:1023F000B701820F931F0E941E171D830C8381E07B
:10240000DF91CF911F910F91FF90EF900895CF939F
:10241000DF9300D0CDB7DEB769831A8241E050E088
:10242000BE016F5F7F4F0E94DB110F900F90DF9115
:10243000CF910895FC0124813581232B31F421E0D3
:1024400061157105A1F0FB0108C0FC01808191813B
:102450006115710531F421E0FC018081882339F098
:1024600005C00E94151721E0892B09F020E0822F7A
:102470000895CF93DF93FC01848195814817590714
:1024800078F4C081D181772767FD7095CE01840FE4
:10249000951F0E940A17009719F08C1B9D0B02C014
:1024A0008FEF9FEFDF91CF91089540E050E00C94C3
:1024B0003912BF92CF92DF92EF92FF920F931F9348
:1024C000CF93DF936C017B01EA0189012417350763
:1024D00020F48D2FE901042F182F65E571E0C60166
:1024E0000E944B11D70114968D919C911597C81796
:1024F000D907C8F48017910708F48C01D701ED9132
:10250000FC911197E00FF11FB08010826D917C91CA
:102510006C0F7D1FC6010E94C311D701ED91FC9184
:10252000E00FF11FB082C601DF91CF911F910F9193
:10253000FF90EF90DF90CF90BF900895FC018081D5
:102540009181009711F00C94DA1660E070E0CB01F5
:10255000089508955058BB27AA270ED071C162D1A3
:1025600030F067D120F031F49F3F11F41EF457C1D1
:102570000EF4E095E7FB4DC1E92F73D180F3BA1754
:10258000620773078407950718F071F49EF58BC1F5
:102590000EF4E0950B2EBA2FA02D0B01B90190017E
:1025A0000C01CA01A0011124FF27591B99F0593FC2
:1025B00050F4503E68F11A16F040A22F232F342F0A
:1025C0004427585FF3CF469537952795A795F04058
:1025D0005395C9F77EF41F16BA0B620B730B840B6D
:1025E000BAF09150A1F0FF0FBB1F661F771F881F25
:1025F000C2F70EC0BA0F621F731F841F48F487957D
:1026000077956795B795F7959E3F08F0B3CF93956B
:10261000880F08F09927EE0F9795879508950CD0AD
:102620000FC107D140F0FED030F021F45F3F19F028
:10263000F0C0511139C1F3C014D198F39923C9F3F3
:102640005523B1F3951B550BBB27AA2762177307B8
:10265000840738F09F5F5F4F220F331F441FAA1F6C
:10266000A9F333D00E2E3AF0E0E830D0915050402C
:10267000E695001CCAF729D0FE2F27D0660F771FDA
:10268000881FBB1F261737074807AB07B0E809F0BC
:10269000BB0B802DBF01FF2793585F4F2AF09E3F51
:1026A000510568F0B6C000C15F3FECF3983EDCF323
:1026B000869577956795B795F7959F5FC9F7880FCA
:1026C000911D9695879597F90895E1E0660F771F1C
:1026D000881FBB1F621773078407BA0720F0621BAD
:1026E000730B840BBA0BEE1F88F7E095089504D0A6
:1026F0006894B111D9C00895BCD088F09F5790F06C
:10270000B92F9927B751A0F0D1F0660F771F881F16
:10271000991F1AF0BA95C9F712C0B13081F0C3D031
:10272000B1E00895C0C0672F782F8827B85F39F0CF
:10273000B93FCCF3869577956795B395D9F73EF475
:1027400090958095709561957F4F8F4F9F4F08951D
:10275000E89409C097FB3EF490958095709561953B
:102760007F4F8F4F9F4F9923A9F0F92F96E9BB27F1
:102770009395F695879577956795B795F111F8CF6D
:10278000FAF4BB0F11F460FF1BC06F5F7F4F8F4FD8
:102790009F4F16C0882311F096E911C0772321F0CE
:1027A0009EE8872F762F05C0662371F096E8862F66
:1027B00070E060E02AF09A95660F771F881FDAF7BD
:1027C000880F9695879597F90895990F0008550FEA
:1027D000AA0BE0E8FEEF16161706E807F907C0F0A7
:1027E00012161306E407F50798F0621B730B840BAF
:1027F000950B39F40A2661F0232B242B252B21F489
:1028000008950A2609F4A140A6958FEF811D811D28
:10281000089597F99F6780E870E060E008959FEF62
:1028200080EC089500240A94161617061806090667
:10283000089500240A941216130614060506089536
:10284000092E0394000C11F4882352F0BB0F40F4BE
:10285000BF2B11F460FF04C06F5F7F4F8F4F9F4FFE
:10286000089557FD9058440F551F59F05F3F71F080
:102870004795880F97FB991F61F09F3F79F08795E7
:102880000895121613061406551FF2CF4695F1DF70
:1028900008C0161617061806991FF1CF8695710500
:1028A000610508940895E894BB2766277727CB0134
:1028B00097F908958ADF08F48FEF08950BD0C0CF01
:1028C000B1DF28F0B6DF18F0952309F0A2CFA7CF2B
:1028D0001124EACFC6DFA0F3959FD1F3950F50E006
:1028E000551F629FF001729FBB27F00DB11D639FC2
:1028F000AA27F00DB11DAA1F649F6627B00DA11D68
:10290000661F829F2227B00DA11D621F739FB00D0D
:10291000A11D621F839FA00D611D221F749F33277D
:10292000A00D611D231F849F600D211D822F762F16
:102930006A2F11249F5750408AF0E1F088234AF013
:10294000EE0FFF1FBB1F661F771F881F915050405F
:10295000A9F79E3F510570F05CCFA6CF5F3FECF327
:10296000983EDCF3869577956795B795F795E7954B
:102970009F5FC1F7FE2B880F911D9695879597F95C
:102980000895A1E21A2EAA1BBB1BFD010DC0AA1FB0
:10299000BB1FEE1FFF1FA217B307E407F50720F0C8
:1029A000A21BB30BE40BF50B661F771F881F991F43
:1029B0001A9469F760957095809590959B01AC018C
:1029C000BD01CF010895EE0FFF1F0590F491E02D9A
:1029D0000994CF93DF938230910510F482E090E068
:1029E000E0911A03F0911B0320E030E0A0E0B0E09A
:1029F000309739F14081518148175907B8F048178D
:102A0000590771F482819381109729F013969C9352
:102A10008E9312972CC090931B0380931A0327C0A8
:102A20002115310531F04217530718F0A901DB01D8
:102A300001C0EF019A01BD01DF010280F381E02DA9
:102A4000D7CF21153105F9F0281B390B243031057A
:102A500080F48A819B816115710521F0FB019383CC
:102A6000828304C090931B0380931A03FE01329665
:102A700044C0FE01E20FF31F81939193225031096C
:102A8000398328833AC02091180330911903232BEE
:102A900041F42091020130910301309319032093F6
:102AA000180320910001309101012115310541F4F5
:102AB0002DB73EB74091040150910501241B350B01
:102AC000E0911803F0911903E217F307A0F42E1B0D
:102AD0003F0B2817390778F0AC014E5F5F4F241782
:102AE000350748F04E0F5F1F5093190340931803AA
:102AF0008193919302C0E0E0F0E0CF01DF91CF91AC
:102B00000895CF93DF93009709F487C0FC013297B3
:102B100013821282C0911A03D0911B03209781F473
:102B200020813181280F391F80911803909119035A
:102B30008217930779F5F0931903E09318036DC09A
:102B4000DE0120E030E0AE17BF0750F412964D9141
:102B50005C9113979D014115510509F1DA01F3CFFD
:102B6000B383A28340815181840F951F8A179B07ED
:102B700071F48D919C911197840F951F029691830A
:102B8000808312968D919C91139793838283211554
:102B9000310529F4F0931B03E0931A033EC0D901D9
:102BA0001396FC93EE9312974D915D91A40FB51F70
:102BB000EA17FB0779F480819181840F951F0296B3
:102BC000D90111969C938E938281938113969C9345
:102BD0008E931297E0E0F0E08A819B81009719F0D4
:102BE000FE01EC01F9CFCE01029628813981820FD6
:102BF000931F20911803309119032817390769F49E
:102C0000309729F410921B0310921A0302C013820A
:102C10001282D0931903C0931803DF91CF910895C6
:102C2000A0E0B0E0E6E1F6E10C943E17EC01CB0148
:102C3000209719F40E94E914B8C0FE01E60FF71FAF
:102C40009E0122503109E217F30708F4ACC0D90104
:102C50000D911C91119706171707B8F00530110553
:102C600008F49FC0A801445051094617570708F4BB
:102C700098C002501109061B170B019311936D9315
:102C80007C93CF010E9481158CC05B01A01AB10A10
:102C90004E01800E911EA0911A03B0911B03612C6E
:102CA000712C60E070E0109709F449C0A815B905CF
:102CB000C9F5ED90FC901197670142E0C40ED11C5C
:102CC000CA14DB0478F147018A189B08640142E0CA
:102CD000C40ED11C1296BC9012971396AC91B5E01D
:102CE000CB16D10440F0B282A38391828082D901B5
:102CF0008D939C9309C00E5F1F4F0E0D1F1DF90190
:102D000011830083EB2DFA2F6115710531F0DB0182
:102D10001396FC93EE93129744C0F0931B03E09339
:102D20001A033FC06D917C9111976616770608F4DF
:102D30003B01BD0112960D90BC91A02DB4CF6091C6
:102D400018037091190368157905E9F46816790676
:102D5000D0F440910001509101014115510541F419
:102D60004DB75EB76091040170910501461B570B8A
:102D7000E417F507C0F4F0931903E0931803F90181
:102D8000918380830EC00E94E9147C01009759F062
:102D9000A801BE010E940117CE010E948115C70142
:102DA00004C0CE0102C080E090E0CDB7DEB7EEE017
:102DB0000C945A171F93FC0199278827BC01E894AB
:102DC00011911032E9F3193010F01E30C8F31B32A4
:102DD00051F01D3249F4689406C00E942517610F16
:102DE000711D811D911D119110531A30B0F33EF4E5
:102DF00090958095709561957F4F8F4F9F4F1F9154
:102E00000895FB01DC0102C001900D924150504039
:102E1000D8F70895FC018191861721F08823D9F70E
:102E2000992708953197CF010895FB01DC018D9119
:102E3000019080190110D9F3990B0895FB01DC0171
:102E400001900D920020E1F70895592F482F372F58
:102E5000262F660F771F881F991F660F771F881F01
:102E6000991F620F731F841F951F660F771F881F9E
:102E7000991F08952F923F924F925F926F927F9287
:102E80008F929F92AF92BF92CF92DF92EF92FF927A
:102E90000F931F93CF93DF93CDB7DEB7CA1BDB0B26
:102EA0000FB6F894DEBF0FBECDBF09942A883988CB
:102EB00048885F846E847D848C849B84AA84B984D2
:102EC000C884DF80EE80FD800C811B81AA81B981DE
:102ED000CE0FD11D0FB6F894DEBF0FBECDBFED01F2
:102EE000089510E0C8ECD0E004C0FE010E94E51493
:0C2EF0002296CA3CD107C9F7F894FFCF26
:102EFC0000001C0380000200040005000600030013
:102F0C000B000A0009000D000F00100007000C0058
:102F1C000E0011000800537461727400696E6974BC
:102F2C00003100000000006D0B400B150B1D0B3029
:102F3C000B3F0B00000000B50E3110370E500E4247
:102F4C000E930E0D0A006E616E00696E66006F7650
:042F5C0066002E00DD
:00000001FF
