:100000000C9460000C9488000C9488000C94880078
:100010000C9488000C9488000C9488000C94880040
:100020000C9488000C9488000C9488000C94880030
:100030000C9488000C9488000C9488000C94880020
:100040000C94E4050C9488000C94AE080C94E00821
:100050000C9488000C9488000C9488000C94880000
:100060000C947D010C94880000000008000201003F
:100070000003040700000000000000000102040863
:100080001020408001020408102001020408102002
:10009000040404040404040402020202020203032E
:1000A0000303030300000000250028002B000000CC
:1000B0000000240027002A001201E0051009240195
:1000C00011241FBECFEFD8E0DEBFCDBF11E0A0E00E
:1000D000B1E0EAE5FDE102C005900D92A436B1075A
:1000E000D9F723E0A4E6B1E001C01D92A732B20720
:1000F000E1F710E0CEEBD0E004C02297FE010E94B1
:10010000640CC83BD107C9F70E9454090C94A00E97
:100110000C9400006DE171E086E892E00E94AE0967
:10012000E6E0F1E0DF010D900020E9F7AD0141507C
:10013000510946505140E0912802F0912902028075
:10014000F381E02D66E071E088E292E0099461E0DD
:1001500070E088E292E00E94D9056AE870E088E2E7
:1001600092E00E94DB0526E040E855E260E070E0A6
:1001700086E892E00E944C086AE271E086E892E02C
:100180000C94AE090F931F93CF93DF938AE691E00F
:100190000E940403C8EAD1E006E011E06991799178
:1001A0008991999120E030E040E452E40E94F10A04
:1001B0000E94590BF80160830E5F1F4FF1E0C83BAE
:1001C000DF0761F766E071E086E892E00E94AE0921
:1001D000CAE6D1E000E010E0FE01E00FF11F668505
:1001E00077854AE050E086E892E00E94630A60E387
:1001F00071E086E892E00E94A1090E5F1F4F0C306B
:10020000110551F763E571E086E892E00E94AE09BE
:100210002C9681E0CA39D807E9F6DF91CF911F917A
:100220000F91089520910E0130910F0140E151E0AE
:1002300066E171E08AE691E00E94AA0264E571E05D
:1002400084E691E00C94D90A84E691E00C946B0A60
:100250001092270281E0809325021092240261E02F
:1002600082E10E94330761E083E10E943307E9EBFA
:10027000F0E080818E7F808380818D7F808388E421
:100280008093B80085E48093BC000895880F809324
:10029000BA000895613298F420912702243089F43D
:1002A0006093DC01FC018EED91E0DC012A2F281B1C
:1002B000261718F421912D93F9CF80E0089581E05D
:1002C000089582E00895909321028093200208957A
:1002D0009093230280932202089585ED8093BC00C1
:1002E0008091BC0084FDFCCF10922702089585EC1C
:1002F0008093BC001092270208951F920F920FB6B0
:100300000F9211242F933F934F935F936F937F939B
:100310008F939F93AF93BF93EF93FF938091B90017
:10032000887F803609F49EC078F5883209F45DC074
:1003300090F4803109F456C038F4882309F4F5C0EC
:10034000883009F44FC0F5C0883109F44EC08032BE
:1003500009F45FC0EEC0803409F46AC058F48033F9
:1003600009F457C0883309F0E4C08093BA010E94B1
:100370007701DFC0803509F44FC0883509F45DC0CE
:10038000883409F0D6C0D3C0883909F4C4C0A8F4B1
:10039000883709F467C038F4883609F463C08037B9
:1003A00009F460C0C6C0883809F4B5C0803909F4C2
:1003B0005FC0803809F0BDC05BC0803B09F483C0DA
:1003C00038F4803A09F466C0883A09F47CC0B1C0B8
:1003D000803C09F4A4C0883C09F4A1C0883B09F41E
:1003E00087C0A7C08091260210C09091FF01809124
:1003F000FE01981770F5E091FF0181E08E0F809368
:10040000FF01F0E0E050FE4F80818093BB0085EC5F
:1004100083C08093BA018BC0E091FF0181E08E0F11
:100420008093FF018091BB00F0E0E050FE4F80839D
:100430009091FF018091FE016BC0E091FF0181E08E
:100440008E0F8093FF018091BB00F0E0E050FE4FE3
:1004500080838091250281116AC081E0809324020B
:1004600084EA5EC083E0809327021092BB01CFCF65
:100470008091BB01803208F04EC0E091BB0181E069
:100480008E0F8093BB018091BB00F0E0E454FE4FDF
:100490008083BDCF0E9477018091BB01803230F410
:1004A000E091BB01F0E0E454FE4F10826091BB018B
:1004B00070E0E0912002F09121028CEB91E009952F
:1004C0001092BB0136C084E0809327021092DD01B8
:1004D0001092DC01E0912202F091230209958091B3
:1004E000DC01811105C081E08093DC011092DE0106
:1004F000E091DD0181E08E0F8093DD01F0E0E252BA
:10050000FE4F80818093BB009091DD018091DC01E2
:10051000981708F47CCF85E88093BC000AC085EC6E
:100520008093BC001092270204C01092BA010E946E
:100530006D01FF91EF91BF91AF919F918F917F914D
:100540006F915F914F913F912F910F900FBE0F9040
:100550001F9018958F929F92AF92BF92CF92DF9289
:10056000EF92FF920F931F93CF93DF931F92CDB71C
:10057000DEB78C01F62E5A01822FF80124873587C9
:1005800060E079830E94FA068F2C7981972E78019A
:1005900083E0C82ED12CF40180819181F2E08F0E8E
:1005A000911CF70180839183F2E0EF0EF11C61E072
:1005B0000E94FA0621E0C21AD10869F76501E12C10
:1005C000F12CF60180819181F2E0CF0ED11CF8016F
:1005D000EE0DFF1D8683978361E00E94FA0622E0FC
:1005E000E20EF11C86E0E816F10459F70F90DF9156
:1005F000CF911F910F91FF90EF90DF90CF90BF9020
:10060000AF909F908F9008952F923F924F925F925C
:100610006F927F928F929F92AF92BF92CF92DF9212
:10062000EF92FF920F931F93CF93DF93CDB7DEB777
:10063000CA54D1090FB6F894DEBF0FBECDBF8C01EE
:100640009E012F5F3F4F690180E3D9011D928A957A
:10065000E9F77E01B1E3EB0EF11C480159012801D5
:1006600033E0632E712CF2018081F2E04F0E511CB9
:1006700061E00E94330721E0621A7108A1F7D401FA
:100680008C91B2E08B0E911C60E00E943307612CCC
:10069000712C662D6170F80186810E94330761FA22
:1006A000662760F9D80118968C910E94330762FA88
:1006B000662760F9F80182850E94330761E070E0E7
:1006C00080E090E00E945106D8011C968C910E9417
:1006D000B406F301EE0FFF1FEA0DFB1D918380832B
:1006E000BFEF6B1A7B0AE8E06E16710491F6F0E139
:1006F000AF0EB11CAE14BF0409F0B1CF9601245F58
:100700003F4FD801F6014191519181E090E04B3586
:10071000510514F480E090E0DD969C938E93DC9775
:100720001297E217F30779F7FE01799696012C5D8F
:100730003F4FD8014191519181E090E04B355105F7
:1007400014F480E090E097969C938E93969712967F
:10075000E217F30779F7FE013D969601285E3F4FB9
:10076000D8014191519181E090E04B35510514F44D
:1007700080E090E059969C938E9358971297E217D9
:10078000F30779F7FE01B596D8012191319181E007
:1007900090E02B35310514F480E090E05B969C935B
:1007A0008E935A971296EE15FF0579F7A12CB12C6E
:1007B000D6016D917D916D014AE050E086E892E0AE
:1007C0000E94630A60E371E086E892E00E94A1095A
:1007D000BFEFAB1ABB0AE6E0AE16B10441F463E525
:1007E00071E086E892E00E94A109A12CB12CCE1400
:1007F000DF04F1F663E571E086E892E00E94A1096A
:1008000080E1D7011D928A95E9F725961CAE1DAEB1
:100810001EAE1FAE25974801C12CD12CCE018F5B97
:100820009F4F27969FAF8EAF27973701A12CB12CF2
:100830001601442437FC4094542CF401EA0DFB1DAE
:1008400086859785892BF9F4C201B1010E948C0B32
:1008500020E030E040E250E40E94F00A9B01AC014D
:10086000F30160817181828193810E94F10AD30139
:100870006D937D938D939C93139721E02796EEAD16
:10088000FFAD279720833CE0A30EB11C84E0680EE7
:10089000711C2796AEADBFAD279711962796BFAFB7
:1008A000AEAF2797B0E3AB16B10439F6EFEFCE1A2F
:1008B000DE0AF2E08F0E911C26E0C216D10409F088
:1008C000ADCFA1E4B0E0AC0FBD1F14962B96BFAF27
:1008D000AEAF2B971701FE01EF5BFF4F2996FFAFDD
:1008E000EEAF2997812C912CA12C90E4B92E412CAC
:1008F000512C20E8622E2FE3722E2996AEADBFADAB
:1009000029978D912996BFAFAEAF2997F801FE9632
:100910002796FFAFEEAF2797882389F1D101CD90BD
:10092000DD90ED90FC9020E030E040EC5FE3C7010B
:10093000B6010E943C0C18164CF42796EEADFFADA4
:100940002797408251826282738225C020E030E086
:1009500040EC5FEBC701B6010E94550B87FF0AC050
:100960002796AEADBFAD27978D929D92AD92BC926A
:10097000139711C080E090E0A0E4B0E404C080E0F0
:1009800090E0A0E8B0E42796EEADFFAD2797808316
:100990009183A283B3830C5F1F4FF4E02F0E311CB1
:1009A00029962EAD3FAD29972B968EAD9FAD2B97F7
:1009B0002817390709F0A1CFC65BDF4F0FB6F894AF
:1009C000DEBF0FBECDBFDF91CF911F910F91FF9082
:1009D000EF90DF90CF90BF90AF909F908F907F90DF
:1009E0006F905F904F903F902F90089580915B02A1
:1009F00090E020915C02821B9109089520915C0295
:100A000080915B02281750F4E22FF0E0E35AFD4F8B
:100A1000808190E02F5F20935C0208958FEF9FEF1D
:100A20000895E0915C0280915B02E81730F4F0E0F9
:100A3000E35AFD4F808190E008958FEF9FEF089576
:100A40000895E0913402F09135023097E1F0309151
:100A50005C0220915B023217B0F040E0242F30E0BE
:100A60002617370754F4DC01A20FB31F5C91D9019C
:100A7000A35ABD4F5C934F5FF1CF10925C0260931D
:100A80005B02CB0109940895E0913602F0913702A0
:100A9000309729F010923A02109239020994089581
:100AA000CF92DF92EF92FF920F931F93CF93DF933A
:100AB0007C01CB018A0120913802222389F0EB01CD
:100AC0006B01C40ED51ECC15DD0569F06991D70107
:100AD000ED91FC910190F081E02DC7010995F3CFD4
:100AE000642F0E944A01C801DF91CF911F910F919D
:100AF000FF90EF90DF90CF900895CF93DF931F92F8
:100B0000CDB7DEB76983209138022223D1F020913E
:100B10003902203240F021E030E0FC0133832283AF
:100B200080E090E015C080913A02E82FF0E0E55CAB
:100B3000FD4F998190838F5F80933A0280933902B1
:100B400005C061E0CE0101960E944A0181E090E07B
:100B50000F90DF91CF910895FC011382128248EE2D
:100B600053E060E070E0448355836683778386E3D7
:100B700091E091838083089510925C0210925B0251
:100B800010923A02109239020C942801CF93DF930D
:100B9000EC01862F0E94460184E495E00E946801E2
:100BA00081E295E00E946301CE01DF91CF910C9428
:100BB000BC050C94C6057093370260933602089505
:100BC00088E292E00C94AC051F920F920FB60F9240
:100BD00011242F933F938F939F93AF93BF93809153
:100BE0007E0290917F02A0918002B09181023091AB
:100BF0007D0223E0230F2D3720F40196A11DB11DA6
:100C000005C026E8230F0296A11DB11D20937D0289
:100C100080937E0290937F02A0938002B093810222
:100C20008091820290918302A0918402B09185020A
:100C30000196A11DB11D8093820290938302A0931F
:100C40008402B0938502BF91AF919F918F913F91A4
:100C50002F910F900FBE0F901F9018953FB7F894EB
:100C60008091820290918302A0918402B0918502CA
:100C700026B5A89B05C02F3F19F00196A11DB11DF7
:100C80003FBF6627782F892F9A2F620F711D811D14
:100C9000911D42E0660F771F881F991F4A95D1F773
:100CA0000895CF92DF92EF92FF92CF93DF936B0183
:100CB0007C010E942E06EB01C114D104E104F10471
:100CC00089F00E94EF0A0E942E066C1B7D0B683E85
:100CD000734090F381E0C81AD108E108F108C851C7
:100CE000DC4FEACFDF91CF91FF90EF90DF90CF9074
:100CF0000895789484B5826084BD84B5816084BD94
:100D000085B5826085BD85B5816085BDEEE6F0E084
:100D1000808181608083E1E8F0E0108280818260E0
:100D20008083808181608083E0E8F0E08081816061
:100D30008083E1EBF0E0808184608083E0EBF0E091
:100D4000808181608083EAE7F0E080818460808335
:100D500080818260808380818160808380818068DF
:100D600080831092C10008958E3008F08E508770F5
:100D700020911C0190E4299F90011124822B8093E3
:100D80007C0080917A00806480937A0080917A0060
:100D900086FDFCCF809178002091790090E0922B25
:100DA0000895833081F028F4813099F08230A1F0E9
:100DB00008958730A9F08830B9F08430D1F480915B
:100DC00080008F7D03C0809180008F7780938000AA
:100DD000089584B58F7702C084B58F7D84BD089552
:100DE0008091B0008F7703C08091B0008F7D809399
:100DF000B0000895CF93DF9390E0FC01E458FF4FDB
:100E00002491FC01E057FF4F8491882349F190E041
:100E1000880F991FFC01E255FF4FA591B4918C55A5
:100E20009F4FFC01C591D4919FB7611108C0F89400
:100E30008C91209582238C93888182230AC0623012
:100E400051F4F8948C91322F309583238C938881C0
:100E5000822B888304C0F8948C91822B8C939FBF43
:100E6000DF91CF9108950F931F93CF93DF931F923C
:100E7000CDB7DEB7282F30E0F901E859FF4F849154
:100E8000F901E458FF4F1491F901E057FF4F049125
:100E90000023C9F0882321F069830E94D10669816B
:100EA000E02FF0E0EE0FFF1FEC55FF4FA591B4913E
:100EB0009FB7F8948C91611103C01095812301C0F4
:100EC000812B8C939FBF0F90DF91CF911F910F913A
:100ED0000895FC01818D228D90E0805C9F4F821BE4
:100EE00091098F7399270895FC01918D828D981730
:100EF00031F0828DE80FF11D858D90E008958FEF20
:100F00009FEF0895FC01918D828D981761F0828D7D
:100F1000DF01A80FB11D5D968C91928D9F5F9F732D
:100F2000928F90E008958FEF9FEF089586E099E00B
:100F3000892B49F080E090E0892B29F00E94060976
:100F400081110C9400000895FC01848DDF01A80F2D
:100F5000B11DA35ABF4F2C91848D90E001968F73E1
:100F60009927848FA689B7892C93A089B1898C9100
:100F700080648C93938D848D981306C00288F389C6
:100F8000E02D80818F7D80830895CF93DF93EC01E6
:100F9000888D8823C9F0EA89FB89808185FD05C099
:100FA000A889B9898C9186FD0FC00FB607FCF5CFD3
:100FB000808185FFF2CFA889B9898C9185FFEDCF1B
:100FC000CE010E94A407E7CFDF91CF910895CF9281
:100FD000DF92FF920F931F93CF93DF931F92CDB7B2
:100FE000DEB76C0181E0D60158968C9358975B96DA
:100FF0009C915B975C968C915C97981307C0509678
:10100000ED91FC915197808185FD2EC0F601038DF5
:1010100010E00F5F1F4F0F731127F02EF601848D24
:10102000F81211C00FB607FCF9CFD6015096ED911A
:10103000FC915197808185FFF1CFC60169830E94A1
:10104000A4076981EBCF838DE80FF11DE35AFF4FB1
:101050006083D6015B960C935B975296ED91FC9161
:101060005397808180620CC0D6015696ED91FC9119
:10107000579760835096ED91FC91519780818064E1
:10108000808381E090E00F90DF91CF911F910F91CD
:10109000FF90DF90CF900895BF92CF92DF92EF92B2
:1010A000FF92CF93DF93EC016A017B01B22EE889B6
:1010B000F98982E08083411581EE58076105710549
:1010C000A1F060E079E08DE390E0A70196010E9435
:1010D000400C2150310941095109569547953795E2
:1010E0002795211580E1380798F0E889F989108261
:1010F00060E874E88EE190E0A70196010E94400C40
:101100002150310941095109569547953795279541
:10111000EC85FD853083EE85FF852083188EEC8974
:10112000FD89B082EA89FB89808180618083EA89B8
:10113000FB89808188608083EA89FB89808180685F
:101140008083EA89FB8980818F7D8083DF91CF91C5
:10115000FF90EF90DF90CF90BF9008951F920F9275
:101160000FB60F9211242F938F939F93EF93FF93BA
:10117000E0919602F09197028081E0919C02F091BB
:101180009D0282FD12C0908180919F028F5F8F73BC
:101190002091A002821751F0E0919F02F0E0EA57FF
:1011A000FD4F958F80939F0201C08081FF91EF9149
:1011B0009F918F912F910F900FBE0F901F901895B8
:1011C0001F920F920FB60F9211242F933F934F93BC
:1011D0005F936F937F938F939F93AF93BF93EF939F
:1011E000FF9386E892E00E94A407FF91EF91BF91E0
:1011F000AF919F918F917F916F915F914F913F91AF
:101200002F910F900FBE0F901F90189586E892E0D7
:101210000E94690721E0892B09F420E0822F0895BC
:10122000109289021092880288EE93E0A0E0B0E06C
:1012300080938A0290938B02A0938C02B0938D02CC
:1012400086E491E0909387028093860285EC90E09B
:10125000909393028093920284EC90E09093950295
:101260008093940280EC90E0909397028093960292
:1012700081EC90E0909399028093980282EC90E048
:1012800090939B0280939A0286EC90E090939D024B
:1012900080939C0210929F021092A0021092A102D1
:1012A0001092A202089508950E9479060E9453099F
:1012B0000E94A700C6E9D7E00E94C2002097E1F390
:1012C0000E949607F9CFCF92DF92EF92FF920F9391
:1012D0001F93CF93DF937C016A01EB0100E010E0E4
:1012E0000C151D0571F06991D701ED91FC910190EC
:1012F000F081E02DC7010995892B19F00F5F1F4F71
:10130000EFCFC801DF91CF911F910F91FF90EF9028
:10131000DF90CF9008956115710581F0DB010D908C
:101320000020E9F7AD0141505109461B570BDC0184
:10133000ED91FC910280F381E02D099480E090E032
:1013400008950C948B09DC01ED91FC910190F081E2
:10135000E02D099462E571E00C948B090F931F93C3
:10136000CF93DF93EC010E948B098C01CE010E9488
:10137000AA09800F911FDF91CF911F910F910895BE
:101380008F929F92AF92BF92CF92DF92EF92FF9295
:101390000F931F93CF93DF93CDB7DEB7A1970FB60F
:1013A000F894DEBF0FBECDBF7C01C42EE52FCB016C
:1013B000D22E19A221E02D1510F02AE0D22E8E0196
:1013C0000F5D1F4F8D2C912CA12CB12C6C2D7E2FDD
:1013D000A50194010E94400C8C2DD29E80191124ED
:1013E000015011098A3014F4805D01C0895CF80154
:1013F0008083211531054105510521F0C22EE32FCF
:10140000CA01E4CFB801C7010E948B09A1960FB6AB
:10141000F894DEBF0FBECDBFDF91CF911F910F912A
:10142000FF90EF90DF90CF90BF90AF909F908F9004
:101430000895CF92DF92EF92FF920F931F93CF9375
:10144000DF93EC016A017B012115310579F4E88114
:10145000F9810190F081E02D642FDF91CF911F91F0
:101460000F91FF90EF90DF90CF9009942A303105D3
:10147000E9F477FF1AC06DE20E94A3098C014427AA
:101480005527BA014C195D096E097F092AE0CE0182
:101490000E94C009800F911FDF91CF911F910F9182
:1014A000FF90EF90DF90CF9008952AE0B701A6015A
:1014B000CE01DF91CF911F910F91FF90EF90DF90C0
:1014C000CF900C94C0099A01AB01662757FD609537
:1014D000762F0C94190AFC01808191810C94000DE7
:1014E000CF93DF93EC0188819981009711F00E94DE
:1014F000000D198218821D821C821B821A82DF91C4
:10150000CF9108950F931F93CF93DF93EC018B013D
:101510006F5F7F4F888199810E948F0D009731F016
:10152000998388831B830A8381E001C080E0DF9177
:10153000CF911F910F910895CF93DF93EC01888194
:101540009981892B29F08A819B818617970760F4FE
:10155000CE010E94820A882341F08C819D81892BD3
:1015600019F4E881F981108281E0DF91CF9108952B
:10157000EF92FF920F931F93CF93DF93EC017B01C8
:101580008A01BA010E949C0A811104C0CE010E9406
:10159000700A07C01D830C83B701888199810E945E
:1015A000620ECE01DF91CF911F910F91FF90EF90CE
:1015B0000895FC0111821082138212821582148216
:1015C0006115710559F0FB0101900020E9F7AF01A9
:1015D00041505109461B570B0C94B80A08950895C1
:1015E0005058BB27AA270ED00DC1FED030F003D132
:1015F00020F031F49F3F11F41EF4F3C00EF4E09597
:10160000E7FBE9C0E92F0FD180F3BA176207730730
:101610008407950718F071F49EF527C10EF4E09544
:101620000B2EBA2FA02D0B01B90190010C01CA019C
:10163000A0011124FF27591B99F0593F50F4503E47
:1016400068F11A16F040A22F232F342F4427585F39
:10165000F3CF469537952795A795F0405395C9F751
:101660007EF41F16BA0B620B730B840BBAF0915009
:10167000A1F0FF0FBB1F661F771F881FC2F70EC0A8
:10168000BA0F621F731F841F48F48795779567957B
:10169000B795F7959E3F08F0B3CF9395880F08F064
:1016A0009927EE0F97958795089571D008F481E0FA
:1016B000089504D06894B111D9C00895BCD088F0C1
:1016C0009F5790F0B92F9927B751A0F0D1F0660F2E
:1016D000771F881F991F1AF0BA95C9F712C0B13049
:1016E00081F0C3D0B1E00895C0C0672F782F88275C
:1016F000B85F39F0B93FCCF3869577956795B39588
:10170000D9F73EF490958095709561957F4F8F4FF6
:101710009F4F0895E89409C097FB3EF490958095FB
:10172000709561957F4F8F4F9F4F9923A9F0F92FA7
:1017300096E9BB279395F695879577956795B79525
:10174000F111F8CFFAF4BB0F11F460FF1BC06F5F0B
:101750007F4F8F4F9F4F16C0882311F096E911C01D
:10176000772321F09EE8872F762F05C0662371F03E
:1017700096E8862F70E060E02AF09A95660F771F52
:10178000881FDAF7880F9695879597F90895990F2E
:101790000008550FAA0BE0E8FEEF16161706E8073B
:1017A000F907C0F012161306E407F50798F0621B5C
:1017B000730B840B950B39F40A2661F0232B242B31
:1017C000252B21F408950A2609F4A140A6958FEF50
:1017D000811D811D089597F99F6780E870E060E0A2
:1017E00008959FEF80EC089500240A9416161706BA
:1017F00018060906089500240A9412161306140602
:1018000005060895092E0394000C11F4882352F064
:10181000BB0F40F4BF2B11F460FF04C06F5F7F4F1C
:101820008F4F9F4F089557FD9058440F551F59F003
:101830005F3F71F04795880F97FB991F61F09F3FBD
:1018400079F087950895121613061406551FF2CFE6
:101850004695F1DF08C0161617061806991FF1CF36
:1018600086957105610508940895E894BB2766275D
:101870007727CB0197F908958ADF08F48FEF089551
:10188000A1E21A2EAA1BBB1BFD010DC0AA1FBB1F84
:10189000EE1FFF1FA217B307E407F50720F0A21BF6
:1018A000B30BE40BF50B661F771F881F991F1A9463
:1018B00069F760957095809590959B01AC01BD018D
:1018C000CF010895EE0FFF1F0590F491E02D0994CC
:1018D000CF93DF938230910510F482E090E0E091A5
:1018E0002503F091260320E030E0A0E0B0E030973F
:1018F00039F14081518148175907B8F04817590705
:1019000071F482819381109729F013969C938E93A2
:1019100012972CC0909326038093250327C021158E
:10192000310531F04217530718F0A901DB0101C05E
:10193000EF019A01BD01DF010280F381E02DD7CFD5
:1019400021153105F9F0281B390B2430310580F4BD
:101950008A819B816115710521F0FB01938382834C
:1019600004C09093260380932503FE01329644C061
:10197000FE01E20FF31F81939193225031093983C5
:1019800028833AC02091230330912403232B41F470
:10199000209102013091030130932403209323030B
:1019A00020910001309101012115310541F42DB73D
:1019B0003EB74091040150910501241B350BE09185
:1019C0002303F0912403E217F307A0F42E1B3F0B2F
:1019D0002817390778F0AC014E5F5F4F24173507A1
:1019E00048F04E0F5F1F50932403409323038193CD
:1019F000919302C0E0E0F0E0CF01DF91CF91089534
:101A0000CF93DF93009709F487C0FC0132971382CC
:101A10001282C0912503D0912603209781F4208162
:101A20003181280F391F809123039091240382175D
:101A3000930779F5F0932403E09323036DC0DE014F
:101A400020E030E0AE17BF0750F412964D915C9144
:101A500013979D014115510509F1DA01F3CFB383C5
:101A6000A28340815181840F951F8A179B0771F4CF
:101A70008D919C911197840F951F0296918380837D
:101A800012968D919C911397938382832115310532
:101A900029F4F0932603E09325033EC0D901139661
:101AA000FC93EE9312974D915D91A40FB51FEA1729
:101AB000FB0779F480819181840F951F0296D901EB
:101AC00011969C938E938281938113969C938E930F
:101AD0001297E0E0F0E08A819B81009719F0FE0107
:101AE000EC01F9CFCE01029628813981820F931F34
:101AF00020912303309124032817390769F4309784
:101B000029F4109226031092250302C01382128238
:101B1000D0932403C0932303DF91CF910895A0E0D5
:101B2000B0E0E5E9FDE00C946D0EEC01CB012097EF
:101B300019F40E94680CB8C0FE01E60FF71F9E0161
:101B400022503109E217F30708F4ACC0D9010D9116
:101B50001C91119706171707B8F00530110508F406
:101B60009FC0A801445051094617570708F498C070
:101B700002501109061B170B019311936D937C936F
:101B8000CF010E94000D8CC05B01A01AB10A4E016A
:101B9000800E911EA0912503B0912603612C712C1B
:101BA00060E070E0109709F449C0A815B905C9F5BF
:101BB000ED90FC901197670142E0C40ED11CCA144D
:101BC000DB0478F147018A189B08640142E0C40EE7
:101BD000D11C1296BC9012971396AC91B5E0CB161F
:101BE000D10440F0B282A38391828082D9018D9387
:101BF0009C9309C00E5F1F4F0E0D1F1DF90111832D
:101C00000083EB2DFA2F6115710531F0DB0113967E
:101C1000FC93EE93129744C0F0932603E0932503C0
:101C20003FC06D917C9111976616770608F43B01D1
:101C3000BD0112960D90BC91A02DB4CF60912303ED
:101C40007091240368157905E9F468167906D0F4D3
:101C500040910001509101014115510541F44DB7EA
:101C60005EB76091040170910501461B570BE417A4
:101C7000F507C0F4F0932403E0932303F901918363
:101C800080830EC00E94680C7C01009759F0A80167
:101C9000BE010E94590ECE010E94000DC70104C072
:101CA000CE0102C080E090E0CDB7DEB7EEE00C944C
:101CB000890EFB01DC0102C001900D9241505040A1
:101CC000D8F70895FB01DC0101900D920020E1F7A7
:101CD00008952F923F924F925F926F927F928F92D0
:101CE0009F92AF92BF92CF92DF92EF92FF920F93AB
:101CF0001F93CF93DF93CDB7DEB7CA1BDB0B0FB6B5
:101D0000F894DEBF0FBECDBF09942A883988488871
:101D10005F846E847D848C849B84AA84B984C88407
:101D2000DF80EE80FD800C811B81AA81B981CE0FFE
:101D3000D11D0FB6F894DEBF0FBECDBFED010895E3
:101D400010E0CEEBD0E004C0FE010E94640C2296AD
:0A1D5000C03CD107C9F7F894FFCF9B
:101D5A00000027038000303B303B303B30000E0050
:101D6A000200030004000500070006000172657105
:101D7A00756573744576656E740053746172740088
:101D8A002000000000007D055005F604FE04110540
:101D9A00200500000000E707630969078207740746
:101DAA00C5070D0A006E616E00696E66006F766681
:041DBA00002E0000F7
:00000001FF
